{"abi":[{"type":"constructor","inputs":[{"name":"_lenderBtcPubkey","type":"string","internalType":"string"},{"name":"_loanDuration","type":"uint256","internalType":"uint256"},{"name":"_timelockLoanReq","type":"uint256","internalType":"uint256"},{"name":"_timelockBtcEscrow","type":"uint256","internalType":"uint256"},{"name":"_timelockRepaymentAccept","type":"uint256","internalType":"uint256"},{"name":"_timelockBtcCollateral","type":"uint256","internalType":"uint256"}],"stateMutability":"nonpayable"},{"type":"receive","stateMutability":"payable"},{"type":"function","name":"LENDER_BOND_PERCENTAGE","inputs":[],"outputs":[{"name":"","type":"uint256","internalType":"uint256"}],"stateMutability":"view"},{"type":"function","name":"MIN_LOAN_AMOUNT","inputs":[],"outputs":[{"name":"","type":"uint256","internalType":"uint256"}],"stateMutability":"view"},{"type":"function","name":"ORIGIN_FEE_PERCENTAGE","inputs":[],"outputs":[{"name":"","type":"uint256","internalType":"uint256"}],"stateMutability":"view"},{"type":"function","name":"PROCESSING_FEE","inputs":[],"outputs":[{"name":"","type":"uint256","internalType":"uint256"}],"stateMutability":"view"},{"type":"function","name":"acceptLoanOffer","inputs":[{"name":"loanId","type":"uint256","internalType":"uint256"},{"name":"preimageBorrower","type":"bytes32","internalType":"bytes32"}],"outputs":[],"stateMutability":"nonpayable"},{"type":"function","name":"acceptLoanRepayment","inputs":[{"name":"loanId","type":"uint256","internalType":"uint256"},{"name":"preimageLender","type":"bytes32","internalType":"bytes32"}],"outputs":[],"stateMutability":"nonpayable"},{"type":"function","name":"associateLenderPreimageHash","inputs":[{"name":"loanId","type":"uint256","internalType":"uint256"},{"name":"preimageHashLender","type":"bytes32","internalType":"bytes32"}],"outputs":[],"stateMutability":"nonpayable"},{"type":"function","name":"attemptRepayment","inputs":[{"name":"loanId","type":"uint256","internalType":"uint256"},{"name":"preimageHashLender","type":"bytes32","internalType":"bytes32"}],"outputs":[],"stateMutability":"payable"},{"type":"function","name":"borrowerToLoanId","inputs":[{"name":"","type":"address","internalType":"address"}],"outputs":[{"name":"","type":"uint256","internalType":"uint256"}],"stateMutability":"view"},{"type":"function","name":"deleteCompletedLoan","inputs":[{"name":"loanId","type":"uint256","internalType":"uint256"}],"outputs":[],"stateMutability":"nonpayable"},{"type":"function","name":"emergencyWithdraw","inputs":[],"outputs":[],"stateMutability":"nonpayable"},{"type":"function","name":"etherSwap","inputs":[],"outputs":[{"name":"","type":"address","internalType":"contract EtherSwap"}],"stateMutability":"view"},{"type":"function","name":"extendLoanOffer","inputs":[{"name":"loanId","type":"uint256","internalType":"uint256"},{"name":"preimageHashBorrower","type":"bytes32","internalType":"bytes32"},{"name":"preimageHashLender","type":"bytes32","internalType":"bytes32"}],"outputs":[],"stateMutability":"payable"},{"type":"function","name":"getLoan","inputs":[{"name":"loanId","type":"uint256","internalType":"uint256"}],"outputs":[{"name":"","type":"tuple","internalType":"struct BtcCollateralLoan.Loan","components":[{"name":"borrowerAddr","type":"address","internalType":"address"},{"name":"borrowerBtcPubkey","type":"string","internalType":"string"},{"name":"amount","type":"uint256","internalType":"uint256"},{"name":"bondAmount","type":"uint256","internalType":"uint256"},{"name":"status","type":"uint8","internalType":"enum BtcCollateralLoan.LoanStatus"},{"name":"preimageHashBorrower","type":"bytes32","internalType":"bytes32"},{"name":"preimageHashLender","type":"bytes32","internalType":"bytes32"},{"name":"txid_p2tr0","type":"bytes32","internalType":"bytes32"},{"name":"vout_p2tr0","type":"uint32","internalType":"uint32"},{"name":"offerBlockheight","type":"uint256","internalType":"uint256"},{"name":"activationBlockheight","type":"uint256","internalType":"uint256"},{"name":"repaymentBlockheight","type":"uint256","internalType":"uint256"}]}],"stateMutability":"view"},{"type":"function","name":"getLoanIdByBorrower","inputs":[{"name":"borrower","type":"address","internalType":"address"}],"outputs":[{"name":"","type":"uint256","internalType":"uint256"}],"stateMutability":"view"},{"type":"function","name":"getLoanParameters","inputs":[{"name":"loanId","type":"uint256","internalType":"uint256"}],"outputs":[{"name":"","type":"tuple","internalType":"struct BtcCollateralLoan.LoanParameters","components":[{"name":"int_rate","type":"uint256","internalType":"uint256"},{"name":"proc_fee","type":"uint256","internalType":"uint256"},{"name":"duration","type":"uint256","internalType":"uint256"},{"name":"tl_borrower","type":"uint256","internalType":"uint256"},{"name":"tl_lender","type":"uint256","internalType":"uint256"}]}],"stateMutability":"view"},{"type":"function","name":"getTotalLoans","inputs":[],"outputs":[{"name":"","type":"uint256","internalType":"uint256"}],"stateMutability":"view"},{"type":"function","name":"lenderBtcPubkey","inputs":[],"outputs":[{"name":"","type":"string","internalType":"string"}],"stateMutability":"view"},{"type":"function","name":"loanDuration","inputs":[],"outputs":[{"name":"","type":"uint256","internalType":"uint256"}],"stateMutability":"view"},{"type":"function","name":"loanInterestRate","inputs":[],"outputs":[{"name":"","type":"uint256","internalType":"uint256"}],"stateMutability":"view"},{"type":"function","name":"loanParameters","inputs":[{"name":"","type":"uint256","internalType":"uint256"}],"outputs":[{"name":"int_rate","type":"uint256","internalType":"uint256"},{"name":"proc_fee","type":"uint256","internalType":"uint256"},{"name":"duration","type":"uint256","internalType":"uint256"},{"name":"tl_borrower","type":"uint256","internalType":"uint256"},{"name":"tl_lender","type":"uint256","internalType":"uint256"}],"stateMutability":"view"},{"type":"function","name":"loans","inputs":[{"name":"","type":"uint256","internalType":"uint256"}],"outputs":[{"name":"borrowerAddr","type":"address","internalType":"address"},{"name":"borrowerBtcPubkey","type":"string","internalType":"string"},{"name":"amount","type":"uint256","internalType":"uint256"},{"name":"bondAmount","type":"uint256","internalType":"uint256"},{"name":"status","type":"uint8","internalType":"enum BtcCollateralLoan.LoanStatus"},{"name":"preimageHashBorrower","type":"bytes32","internalType":"bytes32"},{"name":"preimageHashLender","type":"bytes32","internalType":"bytes32"},{"name":"txid_p2tr0","type":"bytes32","internalType":"bytes32"},{"name":"vout_p2tr0","type":"uint32","internalType":"uint32"},{"name":"offerBlockheight","type":"uint256","internalType":"uint256"},{"name":"activationBlockheight","type":"uint256","internalType":"uint256"},{"name":"repaymentBlockheight","type":"uint256","internalType":"uint256"}],"stateMutability":"view"},{"type":"function","name":"markAsDefaulted","inputs":[{"name":"loanId","type":"uint256","internalType":"uint256"}],"outputs":[],"stateMutability":"nonpayable"},{"type":"function","name":"owner","inputs":[],"outputs":[{"name":"","type":"address","internalType":"address"}],"stateMutability":"view"},{"type":"function","name":"renounceOwnership","inputs":[],"outputs":[],"stateMutability":"nonpayable"},{"type":"function","name":"requestLoan","inputs":[{"name":"amount","type":"uint256","internalType":"uint256"},{"name":"btcAddress","type":"string","internalType":"string"},{"name":"btcPubkey","type":"string","internalType":"string"},{"name":"preimageHashBorrower","type":"bytes32","internalType":"bytes32"},{"name":"txid_p2tr0","type":"bytes32","internalType":"bytes32"},{"name":"vout_p2tr0","type":"uint32","internalType":"uint32"}],"outputs":[],"stateMutability":"payable"},{"type":"function","name":"setEtherSwapAddress","inputs":[{"name":"_etherSwapAddress","type":"address","internalType":"address"}],"outputs":[],"stateMutability":"nonpayable"},{"type":"function","name":"timelockBtcCollateral","inputs":[],"outputs":[{"name":"","type":"uint256","internalType":"uint256"}],"stateMutability":"view"},{"type":"function","name":"timelockBtcEscrow","inputs":[],"outputs":[{"name":"","type":"uint256","internalType":"uint256"}],"stateMutability":"view"},{"type":"function","name":"timelockLoanReq","inputs":[],"outputs":[{"name":"","type":"uint256","internalType":"uint256"}],"stateMutability":"view"},{"type":"function","name":"timelockRepaymentAccept","inputs":[],"outputs":[{"name":"","type":"uint256","internalType":"uint256"}],"stateMutability":"view"},{"type":"function","name":"transferOwnership","inputs":[{"name":"newOwner","type":"address","internalType":"address"}],"outputs":[],"stateMutability":"nonpayable"},{"type":"function","name":"updateLenderBtcPubkey","inputs":[{"name":"newBtcPubkey","type":"string","internalType":"string"}],"outputs":[],"stateMutability":"nonpayable"},{"type":"function","name":"updateParameters","inputs":[{"name":"_loanDuration","type":"uint256","internalType":"uint256"},{"name":"_timelockLoanReq","type":"uint256","internalType":"uint256"},{"name":"_timelockBtcEscrow","type":"uint256","internalType":"uint256"},{"name":"_timelockRepaymentAccept","type":"uint256","internalType":"uint256"},{"name":"_timelockBtcCollateral","type":"uint256","internalType":"uint256"}],"outputs":[],"stateMutability":"nonpayable"},{"type":"function","name":"withdrawLoanOffer","inputs":[{"name":"loanId","type":"uint256","internalType":"uint256"}],"outputs":[],"stateMutability":"nonpayable"},{"type":"function","name":"withdrawRepaymentAttempt","inputs":[{"name":"loanId","type":"uint256","internalType":"uint256"}],"outputs":[],"stateMutability":"nonpayable"},{"type":"event","name":"EtherSwapAddressSet","inputs":[{"name":"etherSwapAddress","type":"address","indexed":true,"internalType":"address"}],"anonymous":false},{"type":"event","name":"LenderPreimageHashAssociated","inputs":[{"name":"loanId","type":"uint256","indexed":true,"internalType":"uint256"},{"name":"lender","type":"address","indexed":true,"internalType":"address"},{"name":"preimageHashLender","type":"bytes32","indexed":false,"internalType":"bytes32"}],"anonymous":false},{"type":"event","name":"LenderUpdated","inputs":[{"name":"lender","type":"address","indexed":true,"internalType":"address"},{"name":"btcPubkey","type":"string","indexed":false,"internalType":"string"}],"anonymous":false},{"type":"event","name":"LoanActivated","inputs":[{"name":"loanId","type":"uint256","indexed":true,"internalType":"uint256"},{"name":"borrower","type":"address","indexed":true,"internalType":"address"},{"name":"preimageBorrower","type":"bytes32","indexed":false,"internalType":"bytes32"}],"anonymous":false},{"type":"event","name":"LoanDefaulted","inputs":[{"name":"loanId","type":"uint256","indexed":true,"internalType":"uint256"},{"name":"lender","type":"address","indexed":true,"internalType":"address"},{"name":"bondAmount","type":"uint256","indexed":false,"internalType":"uint256"}],"anonymous":false},{"type":"event","name":"LoanDeleted","inputs":[{"name":"loanId","type":"uint256","indexed":true,"internalType":"uint256"},{"name":"borrower","type":"address","indexed":true,"internalType":"address"}],"anonymous":false},{"type":"event","name":"LoanOffered","inputs":[{"name":"loanId","type":"uint256","indexed":true,"internalType":"uint256"},{"name":"lender","type":"address","indexed":true,"internalType":"address"},{"name":"amount","type":"uint256","indexed":false,"internalType":"uint256"},{"name":"bondAmount","type":"uint256","indexed":false,"internalType":"uint256"}],"anonymous":false},{"type":"event","name":"LoanRefundedToLender","inputs":[{"name":"loanId","type":"uint256","indexed":true,"internalType":"uint256"},{"name":"lender","type":"address","indexed":true,"internalType":"address"}],"anonymous":false},{"type":"event","name":"LoanRequested","inputs":[{"name":"loanId","type":"uint256","indexed":true,"internalType":"uint256"},{"name":"borrower","type":"address","indexed":true,"internalType":"address"},{"name":"amount","type":"uint256","indexed":false,"internalType":"uint256"},{"name":"btcAddress","type":"string","indexed":false,"internalType":"string"}],"anonymous":false},{"type":"event","name":"OwnershipTransferred","inputs":[{"name":"previousOwner","type":"address","indexed":true,"internalType":"address"},{"name":"newOwner","type":"address","indexed":true,"internalType":"address"}],"anonymous":false},{"type":"event","name":"ParametersUpdated","inputs":[{"name":"loanDuration","type":"uint256","indexed":false,"internalType":"uint256"},{"name":"timelockLoanReq","type":"uint256","indexed":false,"internalType":"uint256"},{"name":"timelockBtcEscrow","type":"uint256","indexed":false,"internalType":"uint256"},{"name":"timelockRepaymentAccept","type":"uint256","indexed":false,"internalType":"uint256"},{"name":"timelockBtcCollateral","type":"uint256","indexed":false,"internalType":"uint256"}],"anonymous":false},{"type":"event","name":"RepaymentAccepted","inputs":[{"name":"loanId","type":"uint256","indexed":true,"internalType":"uint256"},{"name":"lender","type":"address","indexed":true,"internalType":"address"},{"name":"preimageLender","type":"bytes32","indexed":false,"internalType":"bytes32"}],"anonymous":false},{"type":"event","name":"RepaymentAttempted","inputs":[{"name":"loanId","type":"uint256","indexed":true,"internalType":"uint256"},{"name":"borrower","type":"address","indexed":true,"internalType":"address"},{"name":"amount","type":"uint256","indexed":false,"internalType":"uint256"}],"anonymous":false},{"type":"event","name":"RepaymentRefundedToBorrowerWithBond","inputs":[{"name":"loanId","type":"uint256","indexed":true,"internalType":"uint256"},{"name":"borrower","type":"address","indexed":true,"internalType":"address"},{"name":"bondAmount","type":"uint256","indexed":false,"internalType":"uint256"}],"anonymous":false},{"type":"error","name":"OwnableInvalidOwner","inputs":[{"name":"owner","type":"address","internalType":"address"}]},{"type":"error","name":"OwnableUnauthorizedAccount","inputs":[{"name":"account","type":"address","internalType":"address"}]},{"type":"error","name":"ReentrancyGuardReentrantCall","inputs":[]}],"bytecode":{"object":"0x6080604052610320600955348015610015575f5ffd5b50604051615b0f380380615b0f83398181016040528101906100379190610382565b335f73ffffffffffffffffffffffffffffffffffffffff168173ffffffffffffffffffffffffffffffffffffffff16036100a8575f6040517f1e4fbdf700000000000000000000000000000000000000000000000000000000815260040161009f9190610466565b60405180910390fd5b6100b78161014160201b60201c565b50600180819055506040865114610103576040517f08c379a00000000000000000000000000000000000000000000000000000000081526004016100fa906104d9565b60405180910390fd5b856003908161011291906106fe565b5084600881905550836004819055508260058190555081600681905550806007819055505050505050506107cd565b5f5f5f9054906101000a900473ffffffffffffffffffffffffffffffffffffffff169050815f5f6101000a81548173ffffffffffffffffffffffffffffffffffffffff021916908373ffffffffffffffffffffffffffffffffffffffff1602179055508173ffffffffffffffffffffffffffffffffffffffff168173ffffffffffffffffffffffffffffffffffffffff167f8be0079c531659141344cd1fd0a4f28419497f9722a3daafe3b4186f6b6457e060405160405180910390a35050565b5f604051905090565b5f5ffd5b5f5ffd5b5f5ffd5b5f5ffd5b5f601f19601f8301169050919050565b7f4e487b71000000000000000000000000000000000000000000000000000000005f52604160045260245ffd5b6102618261021b565b810181811067ffffffffffffffff821117156102805761027f61022b565b5b80604052505050565b5f610292610202565b905061029e8282610258565b919050565b5f67ffffffffffffffff8211156102bd576102bc61022b565b5b6102c68261021b565b9050602081019050919050565b8281835e5f83830152505050565b5f6102f36102ee846102a3565b610289565b90508281526020810184848401111561030f5761030e610217565b5b61031a8482856102d3565b509392505050565b5f82601f83011261033657610335610213565b5b81516103468482602086016102e1565b91505092915050565b5f819050919050565b6103618161034f565b811461036b575f5ffd5b50565b5f8151905061037c81610358565b92915050565b5f5f5f5f5f5f60c0878903121561039c5761039b61020b565b5b5f87015167ffffffffffffffff8111156103b9576103b861020f565b5b6103c589828a01610322565b96505060206103d689828a0161036e565b95505060406103e789828a0161036e565b94505060606103f889828a0161036e565b935050608061040989828a0161036e565b92505060a061041a89828a0161036e565b9150509295509295509295565b5f73ffffffffffffffffffffffffffffffffffffffff82169050919050565b5f61045082610427565b9050919050565b61046081610446565b82525050565b5f6020820190506104795f830184610457565b92915050565b5f82825260208201905092915050565b7f4c6f616e3a20696e76616c20425443207075626b6579000000000000000000005f82015250565b5f6104c360168361047f565b91506104ce8261048f565b602082019050919050565b5f6020820190508181035f8301526104f0816104b7565b9050919050565b5f81519050919050565b7f4e487b71000000000000000000000000000000000000000000000000000000005f52602260045260245ffd5b5f600282049050600182168061054557607f821691505b60208210810361055857610557610501565b5b50919050565b5f819050815f5260205f209050919050565b5f6020601f8301049050919050565b5f82821b905092915050565b5f600883026105ba7fffffffffffffffffffffffffffffffffffffffffffffffffffffffffffffffff8261057f565b6105c4868361057f565b95508019841693508086168417925050509392505050565b5f819050919050565b5f6105ff6105fa6105f58461034f565b6105dc565b61034f565b9050919050565b5f819050919050565b610618836105e5565b61062c61062482610606565b84845461058b565b825550505050565b5f5f905090565b610643610634565b61064e81848461060f565b505050565b5b81811015610671576106665f8261063b565b600181019050610654565b5050565b601f8211156106b6576106878161055e565b61069084610570565b8101602085101561069f578190505b6106b36106ab85610570565b830182610653565b50505b505050565b5f82821c905092915050565b5f6106d65f19846008026106bb565b1980831691505092915050565b5f6106ee83836106c7565b9150826002028217905092915050565b610707826104f7565b67ffffffffffffffff8111156107205761071f61022b565b5b61072a825461052e565b610735828285610675565b5f60209050601f831160018114610766575f8415610754578287015190505b61075e85826106e3565b8655506107c5565b601f1984166107748661055e565b5f5b8281101561079b57848901518255600182019150602085019450602081019050610776565b868310156107b857848901516107b4601f8916826106c7565b8355505b6001600288020188555050505b505050505050565b615335806107da5f395ff3fe608060405260043610610212575f3560e01c8063899f75e711610117578063b7622dd41161009f578063e1cbcbbc1161006e578063e1cbcbbc1461072b578063e1ec3c6814610755578063f2fde38b1461079c578063f5521bf1146107c4578063f6287a44146107ee57610219565b8063b7622dd414610699578063c222bcea146106c1578063cdb79afd146106eb578063db2e21bc1461071557610219565b8063a8743022116100e6578063a8743022146105cd578063abc6fb18146105f5578063aeca8d4d1461061d578063b021b9c614610647578063b65e21c51461067157610219565b8063899f75e7146105155780638d768fab146105515780638da5cb5b1461057957806396fa212f146105a357610219565b80634df57bdc1161019a5780635de4de2f116101695780635de4de2f146104355780636829015d146104715780636e5f2149146104ad578063715018a6146104d5578063833be5d5146104eb57610219565b80634df57bdc1461037d578063504006ca146103a5578063545c4c6c146103e1578063577b32f41461040b57610219565b8063341c9f26116101e1578063341c9f26146102a55780633c75c92d146102e557806345a011a51461030f5780634cae2bf9146103395780634de2ef5e1461035557610219565b80630f5e0e351461021d5780631203ad511461023957806323b03bc61461026157806330f5cd2f1461028957610219565b3661021957005b5f5ffd5b61023760048036038101906102329190613847565b610818565b005b348015610244575f5ffd5b5061025f600480360381019061025a9190613885565b610af1565b005b34801561026c575f5ffd5b5061028760048036038101906102829190613847565b610ddf565b005b6102a3600480360381019061029e91906138b0565b611155565b005b3480156102b0575f5ffd5b506102cb60048036038101906102c69190613885565b6114e5565b6040516102dc95949392919061390f565b60405180910390f35b3480156102f0575f5ffd5b506102f9611517565b6040516103069190613960565b60405180910390f35b34801561031a575f5ffd5b5061032361151c565b6040516103309190613960565b60405180910390f35b610353600480360381019061034e9190613aee565b611522565b005b348015610360575f5ffd5b5061037b60048036038101906103769190613847565b6119a6565b005b348015610388575f5ffd5b506103a3600480360381019061039e9190613885565b611ca4565b005b3480156103b0575f5ffd5b506103cb60048036038101906103c69190613885565b612098565b6040516103d89190613def565b60405180910390f35b3480156103ec575f5ffd5b506103f56122a7565b6040516104029190613960565b60405180910390f35b348015610416575f5ffd5b5061041f6122b2565b60405161042c9190613960565b60405180910390f35b348015610440575f5ffd5b5061045b60048036038101906104569190613e39565b6122b8565b6040516104689190613960565b60405180910390f35b34801561047c575f5ffd5b5061049760048036038101906104929190613885565b6122fe565b6040516104a49190613eca565b60405180910390f35b3480156104b8575f5ffd5b506104d360048036038101906104ce9190613e39565b6123aa565b005b3480156104e0575f5ffd5b506104e96125a2565b005b3480156104f6575f5ffd5b506104ff6125b5565b60405161050c9190613960565b60405180910390f35b348015610520575f5ffd5b5061053b60048036038101906105369190613e39565b6125be565b6040516105489190613960565b60405180910390f35b34801561055c575f5ffd5b5061057760048036038101906105729190613ee3565b6125d3565b005b348015610584575f5ffd5b5061058d6126ed565b60405161059a9190613f39565b60405180910390f35b3480156105ae575f5ffd5b506105b7612714565b6040516105c49190613960565b60405180910390f35b3480156105d8575f5ffd5b506105f360048036038101906105ee9190613885565b61271f565b005b348015610600575f5ffd5b5061061b60048036038101906106169190613847565b6129b3565b005b348015610628575f5ffd5b50610631612b75565b60405161063e9190613960565b60405180910390f35b348015610652575f5ffd5b5061065b612b7b565b6040516106689190613960565b60405180910390f35b34801561067c575f5ffd5b5061069760048036038101906106929190613885565b612b80565b005b3480156106a4575f5ffd5b506106bf60048036038101906106ba9190613f52565b612f28565b005b3480156106cc575f5ffd5b506106d561315b565b6040516106e29190613960565b60405180910390f35b3480156106f6575f5ffd5b506106ff613161565b60405161070c9190613960565b60405180910390f35b348015610720575f5ffd5b50610729613167565b005b348015610736575f5ffd5b5061073f6132d5565b60405161074c9190614024565b60405180910390f35b348015610760575f5ffd5b5061077b60048036038101906107769190613885565b6132fa565b6040516107939c9b9a999897969594939291906140b2565b60405180910390f35b3480156107a7575f5ffd5b506107c260048036038101906107bd9190613e39565b613416565b005b3480156107cf575f5ffd5b506107d861349a565b6040516107e59190613960565b60405180910390f35b3480156107f9575f5ffd5b506108026134a0565b60405161080f9190614171565b60405180910390f35b815f8111801561082a5750600a548111155b610869576040517f08c379a0000000000000000000000000000000000000000000000000000000008152600401610860906141db565b60405180910390fd5b82600280600781111561087f5761087e613c5d565b5b600b5f8481526020019081526020015f206004015f9054906101000a900460ff1660078111156108b2576108b1613c5d565b5b146108f2576040517f08c379a00000000000000000000000000000000000000000000000000000000081526004016108e990614243565b60405180910390fd5b6108fa61352c565b5f600b5f8781526020019081526020015f20905060085481600a0154610920919061428e565b4310610961576040517f08c379a00000000000000000000000000000000000000000000000000000000081526004016109589061430b565b60405180910390fd5b806002015434146109a7576040517f08c379a000000000000000000000000000000000000000000000000000000000815260040161099e90614373565b60405180910390fd5b5f600c5f8881526020019081526020015f2090505f8160040154436109cc919061428e565b905060025f9054906101000a900473ffffffffffffffffffffffffffffffffffffffff1673ffffffffffffffffffffffffffffffffffffffff16630899146b348930856040518563ffffffff1660e01b8152600401610a2d93929190614391565b5f604051808303818588803b158015610a44575f5ffd5b505af1158015610a56573d5f5f3e3d5ffd5b50505050506004836004015f6101000a81548160ff02191690836007811115610a8257610a81613c5d565b5b02179055504383600b01819055503373ffffffffffffffffffffffffffffffffffffffff16887f368fd7fbc6747fca625b6c17bc4cc007e96f59db5c1281da7bad20d400dca73c34604051610ad79190613960565b60405180910390a3505050610aea613572565b5050505050565b610af96126ed565b73ffffffffffffffffffffffffffffffffffffffff163373ffffffffffffffffffffffffffffffffffffffff1614610b66576040517f08c379a0000000000000000000000000000000000000000000000000000000008152600401610b5d90614410565b60405180910390fd5b805f81118015610b785750600a548111155b610bb7576040517f08c379a0000000000000000000000000000000000000000000000000000000008152600401610bae906141db565b60405180910390fd5b816001806007811115610bcd57610bcc613c5d565b5b600b5f8481526020019081526020015f206004015f9054906101000a900460ff166007811115610c0057610bff613c5d565b5b14610c40576040517f08c379a0000000000000000000000000000000000000000000000000000000008152600401610c3790614243565b60405180910390fd5b610c4861352c565b5f600b5f8681526020019081526020015f2090505f600c5f8781526020019081526020015f2090505f81600301548360090154610c85919061428e565b9050804311610cc9576040517f08c379a0000000000000000000000000000000000000000000000000000000008152600401610cc090614478565b60405180910390fd5b60025f9054906101000a900473ffffffffffffffffffffffffffffffffffffffff1673ffffffffffffffffffffffffffffffffffffffff166335cd4ccb8460050154856002015430856040518563ffffffff1660e01b8152600401610d319493929190614496565b5f604051808303815f87803b158015610d48575f5ffd5b505af1158015610d5a573d5f5f3e3d5ffd5b505050506003836004015f6101000a81548160ff02191690836007811115610d8557610d84613c5d565b5b02179055503373ffffffffffffffffffffffffffffffffffffffff16877fb9ef98bab932353fb28a0f30e3f90e1c311a0e61097e9fea11d0251481e3590a60405160405180910390a3505050610dd9613572565b50505050565b815f81118015610df15750600a548111155b610e30576040517f08c379a0000000000000000000000000000000000000000000000000000000008152600401610e27906141db565b60405180910390fd5b826001806007811115610e4657610e45613c5d565b5b600b5f8481526020019081526020015f206004015f9054906101000a900460ff166007811115610e7957610e78613c5d565b5b14610eb9576040517f08c379a0000000000000000000000000000000000000000000000000000000008152600401610eb090614243565b60405180910390fd5b610ec161352c565b5f600b5f8781526020019081526020015f209050805f015f9054906101000a900473ffffffffffffffffffffffffffffffffffffffff1673ffffffffffffffffffffffffffffffffffffffff163373ffffffffffffffffffffffffffffffffffffffff1614610f65576040517f08c379a0000000000000000000000000000000000000000000000000000000008152600401610f5c90614523565b60405180910390fd5b5f600c5f8881526020019081526020015f2090505f81600301548360090154610f8e919061428e565b9050804310610fd2576040517f08c379a0000000000000000000000000000000000000000000000000000000008152600401610fc99061458b565b60405180910390fd5b60025f9054906101000a900473ffffffffffffffffffffffffffffffffffffffff1673ffffffffffffffffffffffffffffffffffffffff1663cd413efa8885600201543030866040518663ffffffff1660e01b81526004016110389594939291906145a9565b5f604051808303815f87803b15801561104f575f5ffd5b505af1158015611061573d5f5f3e3d5ffd5b505050503373ffffffffffffffffffffffffffffffffffffffff166108fc66038d7ea4c680008560020154611096919061428e565b90811502906040515f60405180830381858888f193505050501580156110be573d5f5f3e3d5ffd5b506002836004015f6101000a81548160ff021916908360078111156110e6576110e5613c5d565b5b02179055504383600a01819055503373ffffffffffffffffffffffffffffffffffffffff16887f818651c3cd8e4e3a7d1d7695be5fe7df5b601f214684a37cf474b4a13c5b0cfc8960405161113b91906145fa565b60405180910390a350505061114e613572565b5050505050565b61115d6126ed565b73ffffffffffffffffffffffffffffffffffffffff163373ffffffffffffffffffffffffffffffffffffffff16146111ca576040517f08c379a00000000000000000000000000000000000000000000000000000000081526004016111c190614410565b60405180910390fd5b825f811180156111dc5750600a548111155b61121b576040517f08c379a0000000000000000000000000000000000000000000000000000000008152600401611212906141db565b60405180910390fd5b835f8060078111156112305761122f613c5d565b5b600b5f8481526020019081526020015f206004015f9054906101000a900460ff16600781111561126357611262613c5d565b5b146112a3576040517f08c379a000000000000000000000000000000000000000000000000000000000815260040161129a90614243565b60405180910390fd5b6112ab61352c565b5f600b5f8881526020019081526020015f2090505f6064600a83600201546112d39190614613565b6112dd9190614681565b90508082600201546112ef919061428e565b3414611330576040517f08c379a0000000000000000000000000000000000000000000000000000000008152600401611327906146fb565b60405180910390fd5b5f600c5f8a81526020019081526020015f2090505f816003015443611355919061428e565b905060025f9054906101000a900473ffffffffffffffffffffffffffffffffffffffff1673ffffffffffffffffffffffffffffffffffffffff16630899146b85600201548b30856040518563ffffffff1660e01b81526004016113ba93929190614391565b5f604051808303818588803b1580156113d1575f5ffd5b505af11580156113e3573d5f5f3e3d5ffd5b50505050503073ffffffffffffffffffffffffffffffffffffffff166108fc8490811502906040515f60405180830381858888f1935050505015801561142b573d5f5f3e3d5ffd5b506001846004015f6101000a81548160ff0219169083600781111561145357611452613c5d565b5b02179055508884600501819055508784600601819055508284600301819055504384600901819055503373ffffffffffffffffffffffffffffffffffffffff168a7f9c30abd0e9d523017113f5d5e193a610ccac429f1148088cb393f58d547e3f578660020154866040516114c9929190614719565b60405180910390a3505050506114dd613572565b505050505050565b600c602052805f5260405f205f91509050805f0154908060010154908060020154908060030154908060040154905085565b600181565b60045481565b61152a61352c565b66038d7ea4c68000341015611574576040517f08c379a000000000000000000000000000000000000000000000000000000000815260040161156b9061478a565b60405180910390fd5b6611c37937e080008610156115be576040517f08c379a00000000000000000000000000000000000000000000000000000000081526004016115b5906147f2565b60405180910390fd5b603e8551101580156115d257506040855111155b611611576040517f08c379a00000000000000000000000000000000000000000000000000000000081526004016116089061485a565b60405180910390fd5b6040845114611655576040517f08c379a000000000000000000000000000000000000000000000000000000000815260040161164c906148c2565b60405180910390fd5b5f600d5f3373ffffffffffffffffffffffffffffffffffffffff1673ffffffffffffffffffffffffffffffffffffffff1681526020019081526020015f2054146116d4576040517f08c379a00000000000000000000000000000000000000000000000000000000081526004016116cb9061492a565b60405180910390fd5b600a5f8154809291906116e690614948565b91905055505f600a5490506040518061018001604052803373ffffffffffffffffffffffffffffffffffffffff1681526020018681526020018881526020015f81526020015f600781111561173e5761173d613c5d565b5b81526020018581526020015f5f1b81526020018481526020018363ffffffff1681526020015f81526020015f81526020015f815250600b5f8381526020019081526020015f205f820151815f015f6101000a81548173ffffffffffffffffffffffffffffffffffffffff021916908373ffffffffffffffffffffffffffffffffffffffff16021790555060208201518160010190816117dd9190614b83565b5060408201518160020155606082015181600301556080820151816004015f6101000a81548160ff0219169083600781111561181c5761181b613c5d565b5b021790555060a0820151816005015560c0820151816006015560e08201518160070155610100820151816008015f6101000a81548163ffffffff021916908363ffffffff160217905550610120820151816009015561014082015181600a015561016082015181600b01559050506040518060a001604052805f815260200166038d7ea4c68000815260200160085481526020016004548152602001600654815250600c5f8381526020019081526020015f205f820151815f01556020820151816001015560408201518160020155606082015181600301556080820151816004015590505080600d5f3373ffffffffffffffffffffffffffffffffffffffff1673ffffffffffffffffffffffffffffffffffffffff1681526020019081526020015f20819055503373ffffffffffffffffffffffffffffffffffffffff16817ffbba0893dd1f941cb4a7bb791aed3ce1ad2a008c20ef3254b2a2cf7752b199f1898960405161198d929190614c52565b60405180910390a35061199e613572565b505050505050565b6119ae6126ed565b73ffffffffffffffffffffffffffffffffffffffff163373ffffffffffffffffffffffffffffffffffffffff1614611a1b576040517f08c379a0000000000000000000000000000000000000000000000000000000008152600401611a1290614410565b60405180910390fd5b815f81118015611a2d5750600a548111155b611a6c576040517f08c379a0000000000000000000000000000000000000000000000000000000008152600401611a63906141db565b60405180910390fd5b826004806007811115611a8257611a81613c5d565b5b600b5f8481526020019081526020015f206004015f9054906101000a900460ff166007811115611ab557611ab4613c5d565b5b14611af5576040517f08c379a0000000000000000000000000000000000000000000000000000000008152600401611aec90614243565b60405180910390fd5b611afd61352c565b5f600b5f8781526020019081526020015f2090505f600c5f8881526020019081526020015f2090505f816004015483600b0154611b3a919061428e565b905060025f9054906101000a900473ffffffffffffffffffffffffffffffffffffffff1673ffffffffffffffffffffffffffffffffffffffff1663cd413efa8885600201543030866040518663ffffffff1660e01b8152600401611ba29594939291906145a9565b5f604051808303815f87803b158015611bb9575f5ffd5b505af1158015611bcb573d5f5f3e3d5ffd5b505050503373ffffffffffffffffffffffffffffffffffffffff166108fc846002015490811502906040515f60405180830381858888f19350505050158015611c16573d5f5f3e3d5ffd5b506005836004015f6101000a81548160ff02191690836007811115611c3e57611c3d613c5d565b5b02179055503373ffffffffffffffffffffffffffffffffffffffff16887f1e5b9872c9a09bd26e31fed71d87edb102c4f54d4f73a1ae801b9da6409ad32689604051611c8a91906145fa565b60405180910390a3505050611c9d613572565b5050505050565b805f81118015611cb65750600a548111155b611cf5576040517f08c379a0000000000000000000000000000000000000000000000000000000008152600401611cec906141db565b60405180910390fd5b5f600b5f8481526020019081526020015f20905060056007811115611d1d57611d1c613c5d565b5b816004015f9054906101000a900460ff166007811115611d4057611d3f613c5d565b5b1480611d7f5750600780811115611d5a57611d59613c5d565b5b816004015f9054906101000a900460ff166007811115611d7d57611d7c613c5d565b5b145b80611dbe575060036007811115611d9957611d98613c5d565b5b816004015f9054906101000a900460ff166007811115611dbc57611dbb613c5d565b5b145b80611dfd575060066007811115611dd857611dd7613c5d565b5b816004015f9054906101000a900460ff166007811115611dfb57611dfa613c5d565b5b145b611e3c576040517f08c379a0000000000000000000000000000000000000000000000000000000008152600401611e3390614cca565b60405180910390fd5b805f015f9054906101000a900473ffffffffffffffffffffffffffffffffffffffff1673ffffffffffffffffffffffffffffffffffffffff163373ffffffffffffffffffffffffffffffffffffffff161480611eca5750611e9b6126ed565b73ffffffffffffffffffffffffffffffffffffffff163373ffffffffffffffffffffffffffffffffffffffff16145b611f09576040517f08c379a0000000000000000000000000000000000000000000000000000000008152600401611f0090614d58565b60405180910390fd5b5f815f015f9054906101000a900473ffffffffffffffffffffffffffffffffffffffff169050600b5f8581526020019081526020015f205f5f82015f6101000a81549073ffffffffffffffffffffffffffffffffffffffff0219169055600182015f611f7591906136ca565b600282015f9055600382015f9055600482015f6101000a81549060ff0219169055600582015f9055600682015f9055600782015f9055600882015f6101000a81549063ffffffff0219169055600982015f9055600a82015f9055600b82015f90555050600c5f8581526020019081526020015f205f5f82015f9055600182015f9055600282015f9055600382015f9055600482015f90555050600d5f8273ffffffffffffffffffffffffffffffffffffffff1673ffffffffffffffffffffffffffffffffffffffff1681526020019081526020015f205f90558073ffffffffffffffffffffffffffffffffffffffff16847f288b85c82fa2ee48d0c7a360f1a694e3d84e5b342c20997f4fd273a60a3fd85460405160405180910390a350505050565b6120a0613707565b5f821180156120b15750600a548211155b6120f0576040517f08c379a00000000000000000000000000000000000000000000000000000000081526004016120e790614dc0565b60405180910390fd5b600b5f8381526020019081526020015f20604051806101800160405290815f82015f9054906101000a900473ffffffffffffffffffffffffffffffffffffffff1673ffffffffffffffffffffffffffffffffffffffff1673ffffffffffffffffffffffffffffffffffffffff168152602001600182018054612171906149bc565b80601f016020809104026020016040519081016040528092919081815260200182805461219d906149bc565b80156121e85780601f106121bf576101008083540402835291602001916121e8565b820191905f5260205f20905b8154815290600101906020018083116121cb57829003601f168201915b505050505081526020016002820154815260200160038201548152602001600482015f9054906101000a900460ff16600781111561222957612228613c5d565b5b600781111561223b5761223a613c5d565b5b8152602001600582015481526020016006820154815260200160078201548152602001600882015f9054906101000a900463ffffffff1663ffffffff1663ffffffff16815260200160098201548152602001600a8201548152602001600b820154815250509050919050565b66038d7ea4c6800081565b60075481565b5f600d5f8373ffffffffffffffffffffffffffffffffffffffff1673ffffffffffffffffffffffffffffffffffffffff1681526020019081526020015f20549050919050565b61230661378b565b5f821180156123175750600a548211155b612356576040517f08c379a000000000000000000000000000000000000000000000000000000000815260040161234d90614dc0565b60405180910390fd5b600c5f8381526020019081526020015f206040518060a00160405290815f82015481526020016001820154815260200160028201548152602001600382015481526020016004820154815250509050919050565b6123b26126ed565b73ffffffffffffffffffffffffffffffffffffffff163373ffffffffffffffffffffffffffffffffffffffff161461241f576040517f08c379a000000000000000000000000000000000000000000000000000000000815260040161241690614410565b60405180910390fd5b5f73ffffffffffffffffffffffffffffffffffffffff168173ffffffffffffffffffffffffffffffffffffffff160361248d576040517f08c379a000000000000000000000000000000000000000000000000000000000815260040161248490614e28565b60405180910390fd5b5f73ffffffffffffffffffffffffffffffffffffffff1660025f9054906101000a900473ffffffffffffffffffffffffffffffffffffffff1673ffffffffffffffffffffffffffffffffffffffff161461251c576040517f08c379a000000000000000000000000000000000000000000000000000000000815260040161251390614e90565b60405180910390fd5b8060025f6101000a81548173ffffffffffffffffffffffffffffffffffffffff021916908373ffffffffffffffffffffffffffffffffffffffff1602179055508073ffffffffffffffffffffffffffffffffffffffff167f7aaab081253ef76918f4988658f9603cf0d1e382aecfd0d0c98c46fd7e0d241e60405160405180910390a250565b6125aa61357b565b6125b35f613602565b565b5f600a54905090565b600d602052805f5260405f205f915090505481565b6125db6126ed565b73ffffffffffffffffffffffffffffffffffffffff163373ffffffffffffffffffffffffffffffffffffffff1614612648576040517f08c379a000000000000000000000000000000000000000000000000000000000815260040161263f90614410565b60405180910390fd5b604081511461268c576040517f08c379a0000000000000000000000000000000000000000000000000000000008152600401612683906148c2565b60405180910390fd5b806003908161269b9190614b83565b503373ffffffffffffffffffffffffffffffffffffffff167f26795e69df9082f94483500d4891539f4b4a34608ce4c5c0c74b4cf352af82d4826040516126e29190614171565b60405180910390a250565b5f5f5f9054906101000a900473ffffffffffffffffffffffffffffffffffffffff16905090565b6611c37937e0800081565b6127276126ed565b73ffffffffffffffffffffffffffffffffffffffff163373ffffffffffffffffffffffffffffffffffffffff1614612794576040517f08c379a000000000000000000000000000000000000000000000000000000000815260040161278b90614410565b60405180910390fd5b805f811180156127a65750600a548111155b6127e5576040517f08c379a00000000000000000000000000000000000000000000000000000000081526004016127dc906141db565b60405180910390fd5b8160028060078111156127fb576127fa613c5d565b5b600b5f8481526020019081526020015f206004015f9054906101000a900460ff16600781111561282e5761282d613c5d565b5b1461286e576040517f08c379a000000000000000000000000000000000000000000000000000000000815260040161286590614243565b60405180910390fd5b61287661352c565b5f600b5f8681526020019081526020015f20905060085481600a015461289c919061428e565b43116128dd576040517f08c379a00000000000000000000000000000000000000000000000000000000081526004016128d490614ef8565b60405180910390fd5b6007816004015f6101000a81548160ff0219169083600781111561290457612903613c5d565b5b02179055503373ffffffffffffffffffffffffffffffffffffffff166108fc826003015490811502906040515f60405180830381858888f19350505050158015612950573d5f5f3e3d5ffd5b503373ffffffffffffffffffffffffffffffffffffffff16857f2d6de712d035bfecc1593860af7eae0831e978cab3cd96f778478b1fdc443bc3836003015460405161299c9190613960565b60405180910390a3506129ad613572565b50505050565b6129bb6126ed565b73ffffffffffffffffffffffffffffffffffffffff163373ffffffffffffffffffffffffffffffffffffffff1614612a28576040517f08c379a0000000000000000000000000000000000000000000000000000000008152600401612a1f90614410565b60405180910390fd5b815f81118015612a3a5750600a548111155b612a79576040517f08c379a0000000000000000000000000000000000000000000000000000000008152600401612a70906141db565b60405180910390fd5b825f806007811115612a8e57612a8d613c5d565b5b600b5f8481526020019081526020015f206004015f9054906101000a900460ff166007811115612ac157612ac0613c5d565b5b14612b01576040517f08c379a0000000000000000000000000000000000000000000000000000000008152600401612af890614243565b60405180910390fd5b5f600b5f8781526020019081526020015f2090508481600601819055503373ffffffffffffffffffffffffffffffffffffffff16867fba765ac80d70c6ea721691828df85ccb151235037e23926de29f6a436ed1d79c87604051612b6591906145fa565b60405180910390a3505050505050565b60065481565b600a81565b805f81118015612b925750600a548111155b612bd1576040517f08c379a0000000000000000000000000000000000000000000000000000000008152600401612bc8906141db565b60405180910390fd5b816004806007811115612be757612be6613c5d565b5b600b5f8481526020019081526020015f206004015f9054906101000a900460ff166007811115612c1a57612c19613c5d565b5b14612c5a576040517f08c379a0000000000000000000000000000000000000000000000000000000008152600401612c5190614243565b60405180910390fd5b612c6261352c565b5f600b5f8681526020019081526020015f209050805f015f9054906101000a900473ffffffffffffffffffffffffffffffffffffffff1673ffffffffffffffffffffffffffffffffffffffff163373ffffffffffffffffffffffffffffffffffffffff1614612d06576040517f08c379a0000000000000000000000000000000000000000000000000000000008152600401612cfd90614523565b60405180910390fd5b5f5f1b816006015414612d4e576040517f08c379a0000000000000000000000000000000000000000000000000000000008152600401612d4590614f60565b60405180910390fd5b5f600c5f8781526020019081526020015f2090505f816004015483600b0154612d77919061428e565b9050804311612dbb576040517f08c379a0000000000000000000000000000000000000000000000000000000008152600401612db290614fc8565b60405180910390fd5b60025f9054906101000a900473ffffffffffffffffffffffffffffffffffffffff1673ffffffffffffffffffffffffffffffffffffffff166335cd4ccb8460050154856002015430856040518563ffffffff1660e01b8152600401612e239493929190614496565b5f604051808303815f87803b158015612e3a575f5ffd5b505af1158015612e4c573d5f5f3e3d5ffd5b505050506006836004015f6101000a81548160ff02191690836007811115612e7757612e76613c5d565b5b02179055503373ffffffffffffffffffffffffffffffffffffffff166108fc846003015490811502906040515f60405180830381858888f19350505050158015612ec3573d5f5f3e3d5ffd5b503373ffffffffffffffffffffffffffffffffffffffff16877f33d7eaf890876918584d6c3e056a2239ac592e7564063a6b1ec715cea0b39f718560030154604051612f0f9190613960565b60405180910390a3505050612f22613572565b50505050565b612f306126ed565b73ffffffffffffffffffffffffffffffffffffffff163373ffffffffffffffffffffffffffffffffffffffff1614612f9d576040517f08c379a0000000000000000000000000000000000000000000000000000000008152600401612f9490614410565b60405180910390fd5b5f8511612fdf576040517f08c379a0000000000000000000000000000000000000000000000000000000008152600401612fd690615030565b60405180910390fd5b5f8411613021576040517f08c379a000000000000000000000000000000000000000000000000000000000815260040161301890615098565b60405180910390fd5b5f8211613063576040517f08c379a000000000000000000000000000000000000000000000000000000000815260040161305a90615100565b60405180910390fd5b8383116130a5576040517f08c379a000000000000000000000000000000000000000000000000000000000815260040161309c90615168565b60405180910390fd5b84826130b1919061428e565b81116130f2576040517f08c379a00000000000000000000000000000000000000000000000000000000081526004016130e9906151d0565b60405180910390fd5b84600881905550836004819055508260058190555081600681905550806007819055507fd83cef869924c3f9f84c744735163b075c470a9725a528100c5350524e073ffd858585858560405161314c95949392919061390f565b60405180910390a15050505050565b60095481565b60055481565b61316f6126ed565b73ffffffffffffffffffffffffffffffffffffffff163373ffffffffffffffffffffffffffffffffffffffff16146131dc576040517f08c379a00000000000000000000000000000000000000000000000000000000081526004016131d390614410565b60405180910390fd5b5f4790505f8111613222576040517f08c379a000000000000000000000000000000000000000000000000000000000815260040161321990615238565b60405180910390fd5b5f61322b6126ed565b73ffffffffffffffffffffffffffffffffffffffff168260405161324e90615283565b5f6040518083038185875af1925050503d805f8114613288576040519150601f19603f3d011682016040523d82523d5f602084013e61328d565b606091505b50509050806132d1576040517f08c379a00000000000000000000000000000000000000000000000000000000081526004016132c8906152e1565b60405180910390fd5b5050565b60025f9054906101000a900473ffffffffffffffffffffffffffffffffffffffff1681565b600b602052805f5260405f205f91509050805f015f9054906101000a900473ffffffffffffffffffffffffffffffffffffffff169080600101805461333e906149bc565b80601f016020809104026020016040519081016040528092919081815260200182805461336a906149bc565b80156133b55780601f1061338c576101008083540402835291602001916133b5565b820191905f5260205f20905b81548152906001019060200180831161339857829003601f168201915b505050505090806002015490806003015490806004015f9054906101000a900460ff1690806005015490806006015490806007015490806008015f9054906101000a900463ffffffff169080600901549080600a01549080600b015490508c565b61341e61357b565b5f73ffffffffffffffffffffffffffffffffffffffff168173ffffffffffffffffffffffffffffffffffffffff160361348e575f6040517f1e4fbdf70000000000000000000000000000000000000000000000000000000081526004016134859190613f39565b60405180910390fd5b61349781613602565b50565b60085481565b600380546134ad906149bc565b80601f01602080910402602001604051908101604052809291908181526020018280546134d9906149bc565b80156135245780601f106134fb57610100808354040283529160200191613524565b820191905f5260205f20905b81548152906001019060200180831161350757829003601f168201915b505050505081565b600260015403613568576040517f3ee5aeb500000000000000000000000000000000000000000000000000000000815260040160405180910390fd5b6002600181905550565b60018081905550565b6135836136c3565b73ffffffffffffffffffffffffffffffffffffffff166135a16126ed565b73ffffffffffffffffffffffffffffffffffffffff1614613600576135c46136c3565b6040517f118cdaa70000000000000000000000000000000000000000000000000000000081526004016135f79190613f39565b60405180910390fd5b565b5f5f5f9054906101000a900473ffffffffffffffffffffffffffffffffffffffff169050815f5f6101000a81548173ffffffffffffffffffffffffffffffffffffffff021916908373ffffffffffffffffffffffffffffffffffffffff1602179055508173ffffffffffffffffffffffffffffffffffffffff168173ffffffffffffffffffffffffffffffffffffffff167f8be0079c531659141344cd1fd0a4f28419497f9722a3daafe3b4186f6b6457e060405160405180910390a35050565b5f33905090565b5080546136d6906149bc565b5f825580601f106136e75750613704565b601f0160209004905f5260205f209081019061370391906137b5565b5b50565b6040518061018001604052805f73ffffffffffffffffffffffffffffffffffffffff168152602001606081526020015f81526020015f81526020015f600781111561375557613754613c5d565b5b81526020015f81526020015f81526020015f81526020015f63ffffffff1681526020015f81526020015f81526020015f81525090565b6040518060a001604052805f81526020015f81526020015f81526020015f81526020015f81525090565b5b808211156137cc575f815f9055506001016137b6565b5090565b5f604051905090565b5f5ffd5b5f5ffd5b5f819050919050565b6137f3816137e1565b81146137fd575f5ffd5b50565b5f8135905061380e816137ea565b92915050565b5f819050919050565b61382681613814565b8114613830575f5ffd5b50565b5f813590506138418161381d565b92915050565b5f5f6040838503121561385d5761385c6137d9565b5b5f61386a85828601613800565b925050602061387b85828601613833565b9150509250929050565b5f6020828403121561389a576138996137d9565b5b5f6138a784828501613800565b91505092915050565b5f5f5f606084860312156138c7576138c66137d9565b5b5f6138d486828701613800565b93505060206138e586828701613833565b92505060406138f686828701613833565b9150509250925092565b613909816137e1565b82525050565b5f60a0820190506139225f830188613900565b61392f6020830187613900565b61393c6040830186613900565b6139496060830185613900565b6139566080830184613900565b9695505050505050565b5f6020820190506139735f830184613900565b92915050565b5f5ffd5b5f5ffd5b5f601f19601f8301169050919050565b7f4e487b71000000000000000000000000000000000000000000000000000000005f52604160045260245ffd5b6139c782613981565b810181811067ffffffffffffffff821117156139e6576139e5613991565b5b80604052505050565b5f6139f86137d0565b9050613a0482826139be565b919050565b5f67ffffffffffffffff821115613a2357613a22613991565b5b613a2c82613981565b9050602081019050919050565b828183375f83830152505050565b5f613a59613a5484613a09565b6139ef565b905082815260208101848484011115613a7557613a7461397d565b5b613a80848285613a39565b509392505050565b5f82601f830112613a9c57613a9b613979565b5b8135613aac848260208601613a47565b91505092915050565b5f63ffffffff82169050919050565b613acd81613ab5565b8114613ad7575f5ffd5b50565b5f81359050613ae881613ac4565b92915050565b5f5f5f5f5f5f60c08789031215613b0857613b076137d9565b5b5f613b1589828a01613800565b965050602087013567ffffffffffffffff811115613b3657613b356137dd565b5b613b4289828a01613a88565b955050604087013567ffffffffffffffff811115613b6357613b626137dd565b5b613b6f89828a01613a88565b9450506060613b8089828a01613833565b9350506080613b9189828a01613833565b92505060a0613ba289828a01613ada565b9150509295509295509295565b5f73ffffffffffffffffffffffffffffffffffffffff82169050919050565b5f613bd882613baf565b9050919050565b613be881613bce565b82525050565b5f81519050919050565b5f82825260208201905092915050565b8281835e5f83830152505050565b5f613c2082613bee565b613c2a8185613bf8565b9350613c3a818560208601613c08565b613c4381613981565b840191505092915050565b613c57816137e1565b82525050565b7f4e487b71000000000000000000000000000000000000000000000000000000005f52602160045260245ffd5b60088110613c9b57613c9a613c5d565b5b50565b5f819050613cab82613c8a565b919050565b5f613cba82613c9e565b9050919050565b613cca81613cb0565b82525050565b613cd981613814565b82525050565b613ce881613ab5565b82525050565b5f61018083015f830151613d045f860182613bdf565b5060208301518482036020860152613d1c8282613c16565b9150506040830151613d316040860182613c4e565b506060830151613d446060860182613c4e565b506080830151613d576080860182613cc1565b5060a0830151613d6a60a0860182613cd0565b5060c0830151613d7d60c0860182613cd0565b5060e0830151613d9060e0860182613cd0565b50610100830151613da5610100860182613cdf565b50610120830151613dba610120860182613c4e565b50610140830151613dcf610140860182613c4e565b50610160830151613de4610160860182613c4e565b508091505092915050565b5f6020820190508181035f830152613e078184613cee565b905092915050565b613e1881613bce565b8114613e22575f5ffd5b50565b5f81359050613e3381613e0f565b92915050565b5f60208284031215613e4e57613e4d6137d9565b5b5f613e5b84828501613e25565b91505092915050565b60a082015f820151613e785f850182613c4e565b506020820151613e8b6020850182613c4e565b506040820151613e9e6040850182613c4e565b506060820151613eb16060850182613c4e565b506080820151613ec46080850182613c4e565b50505050565b5f60a082019050613edd5f830184613e64565b92915050565b5f60208284031215613ef857613ef76137d9565b5b5f82013567ffffffffffffffff811115613f1557613f146137dd565b5b613f2184828501613a88565b91505092915050565b613f3381613bce565b82525050565b5f602082019050613f4c5f830184613f2a565b92915050565b5f5f5f5f5f60a08688031215613f6b57613f6a6137d9565b5b5f613f7888828901613800565b9550506020613f8988828901613800565b9450506040613f9a88828901613800565b9350506060613fab88828901613800565b9250506080613fbc88828901613800565b9150509295509295909350565b5f819050919050565b5f613fec613fe7613fe284613baf565b613fc9565b613baf565b9050919050565b5f613ffd82613fd2565b9050919050565b5f61400e82613ff3565b9050919050565b61401e81614004565b82525050565b5f6020820190506140375f830184614015565b92915050565b5f82825260208201905092915050565b5f61405782613bee565b614061818561403d565b9350614071818560208601613c08565b61407a81613981565b840191505092915050565b61408e81613cb0565b82525050565b61409d81613814565b82525050565b6140ac81613ab5565b82525050565b5f610180820190506140c65f83018f613f2a565b81810360208301526140d8818e61404d565b90506140e7604083018d613900565b6140f4606083018c613900565b614101608083018b614085565b61410e60a083018a614094565b61411b60c0830189614094565b61412860e0830188614094565b6141366101008301876140a3565b614144610120830186613900565b614152610140830185613900565b614160610160830184613900565b9d9c50505050505050505050505050565b5f6020820190508181035f830152614189818461404d565b905092915050565b7f4c6f616e3a20646f6573206e6f742065786973740000000000000000000000005f82015250565b5f6141c560148361403d565b91506141d082614191565b602082019050919050565b5f6020820190508181035f8301526141f2816141b9565b9050919050565b7f4c6f616e3a20696e636f727265637420737461747573000000000000000000005f82015250565b5f61422d60168361403d565b9150614238826141f9565b602082019050919050565b5f6020820190508181035f83015261425a81614221565b9050919050565b7f4e487b71000000000000000000000000000000000000000000000000000000005f52601160045260245ffd5b5f614298826137e1565b91506142a3836137e1565b92508282019050808211156142bb576142ba614261565b5b92915050565b7f4c6f616e3a2070617374206475650000000000000000000000000000000000005f82015250565b5f6142f5600e8361403d565b9150614300826142c1565b602082019050919050565b5f6020820190508181035f830152614322816142e9565b9050919050565b7f4c6f616e3a20696e636f72726563742072706d7420616d7400000000000000005f82015250565b5f61435d60188361403d565b915061436882614329565b602082019050919050565b5f6020820190508181035f83015261438a81614351565b9050919050565b5f6060820190506143a45f830186614094565b6143b16020830185613f2a565b6143be6040830184613900565b949350505050565b7f4c6f616e3a2063616c6c6572206e6f74206c656e6465720000000000000000005f82015250565b5f6143fa60178361403d565b9150614405826143c6565b602082019050919050565b5f6020820190508181035f830152614427816143ee565b9050919050565b7f4c6f616e3a20745f42206e6f74207061737365640000000000000000000000005f82015250565b5f61446260148361403d565b915061446d8261442e565b602082019050919050565b5f6020820190508181035f83015261448f81614456565b9050919050565b5f6080820190506144a95f830187614094565b6144b66020830186613900565b6144c36040830185613f2a565b6144d06060830184613900565b95945050505050565b7f4c6f616e3a2063616c6c6572206e6f7420626f72726f776572000000000000005f82015250565b5f61450d60198361403d565b9150614518826144d9565b602082019050919050565b5f6020820190508181035f83015261453a81614501565b9050919050565b7f4c6f616e3a20745f4220657870697265640000000000000000000000000000005f82015250565b5f61457560118361403d565b915061458082614541565b602082019050919050565b5f6020820190508181035f8301526145a281614569565b9050919050565b5f60a0820190506145bc5f830188614094565b6145c96020830187613900565b6145d66040830186613f2a565b6145e36060830185613f2a565b6145f06080830184613900565b9695505050505050565b5f60208201905061460d5f830184614094565b92915050565b5f61461d826137e1565b9150614628836137e1565b9250828202614636816137e1565b9150828204841483151761464d5761464c614261565b5b5092915050565b7f4e487b71000000000000000000000000000000000000000000000000000000005f52601260045260245ffd5b5f61468b826137e1565b9150614696836137e1565b9250826146a6576146a5614654565b5b828204905092915050565b7f4c6f616e3a20696e636f72726563742076616c75652073656e740000000000005f82015250565b5f6146e5601a8361403d565b91506146f0826146b1565b602082019050919050565b5f6020820190508181035f830152614712816146d9565b9050919050565b5f60408201905061472c5f830185613900565b6147396020830184613900565b9392505050565b7f4c6f616e3a20696e737566662070726f632066656500000000000000000000005f82015250565b5f61477460158361403d565b915061477f82614740565b602082019050919050565b5f6020820190508181035f8301526147a181614768565b9050919050565b7f4c6f616e3a20616d74206d757374206265203e206d696e0000000000000000005f82015250565b5f6147dc60178361403d565b91506147e7826147a8565b602082019050919050565b5f6020820190508181035f830152614809816147d0565b9050919050565b7f4c6f616e3a20696e76616c2050325452206164647200000000000000000000005f82015250565b5f61484460158361403d565b915061484f82614810565b602082019050919050565b5f6020820190508181035f83015261487181614838565b9050919050565b7f4c6f616e3a20696e76616c20425443207075626b6579000000000000000000005f82015250565b5f6148ac60168361403d565b91506148b782614878565b602082019050919050565b5f6020820190508181035f8301526148d9816148a0565b9050919050565b7f4c6f616e3a20626f72726f7765722068617320616374697665206c6f616e00005f82015250565b5f614914601e8361403d565b915061491f826148e0565b602082019050919050565b5f6020820190508181035f83015261494181614908565b9050919050565b5f614952826137e1565b91507fffffffffffffffffffffffffffffffffffffffffffffffffffffffffffffffff820361498457614983614261565b5b600182019050919050565b7f4e487b71000000000000000000000000000000000000000000000000000000005f52602260045260245ffd5b5f60028204905060018216806149d357607f821691505b6020821081036149e6576149e561498f565b5b50919050565b5f819050815f5260205f209050919050565b5f6020601f8301049050919050565b5f82821b905092915050565b5f60088302614a487fffffffffffffffffffffffffffffffffffffffffffffffffffffffffffffffff82614a0d565b614a528683614a0d565b95508019841693508086168417925050509392505050565b5f614a84614a7f614a7a846137e1565b613fc9565b6137e1565b9050919050565b5f819050919050565b614a9d83614a6a565b614ab1614aa982614a8b565b848454614a19565b825550505050565b5f5f905090565b614ac8614ab9565b614ad3818484614a94565b505050565b5b81811015614af657614aeb5f82614ac0565b600181019050614ad9565b5050565b601f821115614b3b57614b0c816149ec565b614b15846149fe565b81016020851015614b24578190505b614b38614b30856149fe565b830182614ad8565b50505b505050565b5f82821c905092915050565b5f614b5b5f1984600802614b40565b1980831691505092915050565b5f614b738383614b4c565b9150826002028217905092915050565b614b8c82613bee565b67ffffffffffffffff811115614ba557614ba4613991565b5b614baf82546149bc565b614bba828285614afa565b5f60209050601f831160018114614beb575f8415614bd9578287015190505b614be38582614b68565b865550614c4a565b601f198416614bf9866149ec565b5f5b82811015614c2057848901518255600182019150602085019450602081019050614bfb565b86831015614c3d5784890151614c39601f891682614b4c565b8355505b6001600288020188555050505b505050505050565b5f604082019050614c655f830185613900565b8181036020830152614c77818461404d565b90509392505050565b7f4c6f616e3a2063616e742064656c65746520616374697665206c6f616e0000005f82015250565b5f614cb4601d8361403d565b9150614cbf82614c80565b602082019050919050565b5f6020820190508181035f830152614ce181614ca8565b9050919050565b7f4c6f616e3a206f6e6c7920626f72726f776572206f72206c656e6465722063615f8201527f6e2064656c657465000000000000000000000000000000000000000000000000602082015250565b5f614d4260288361403d565b9150614d4d82614ce8565b604082019050919050565b5f6020820190508181035f830152614d6f81614d36565b9050919050565b7f4c6f616e3a206c6f616e20646f6573206e6f74206578697374000000000000005f82015250565b5f614daa60198361403d565b9150614db582614d76565b602082019050919050565b5f6020820190508181035f830152614dd781614d9e565b9050919050565b7f4c6f616e3a20696e76616c2045746865725377617020616464720000000000005f82015250565b5f614e12601a8361403d565b9150614e1d82614dde565b602082019050919050565b5f6020820190508181035f830152614e3f81614e06565b9050919050565b7f4c6f616e3a20457468657253776170206164647220616c7265616479207365745f82015250565b5f614e7a60208361403d565b9150614e8582614e46565b602082019050919050565b5f6020820190508181035f830152614ea781614e6e565b9050919050565b7f4c6f616e3a2063616e6e6f74206d61726b2064656661756c74656420796574005f82015250565b5f614ee2601f8361403d565b9150614eed82614eae565b602082019050919050565b5f6020820190508181035f830152614f0f81614ed6565b9050919050565b7f4c6f616e3a2072706d7420616c726561647920616363657074656400000000005f82015250565b5f614f4a601b8361403d565b9150614f5582614f16565b602082019050919050565b5f6020820190508181035f830152614f7781614f3e565b9050919050565b7f4c6f616e3a20745f4c206e6f74207061737365640000000000000000000000005f82015250565b5f614fb260148361403d565b9150614fbd82614f7e565b602082019050919050565b5f6020820190508181035f830152614fdf81614fa6565b9050919050565b7f4c6f616e3a206475726174696f6e206d757374206265203e20300000000000005f82015250565b5f61501a601a8361403d565b915061502582614fe6565b602082019050919050565b5f6020820190508181035f8301526150478161500e565b9050919050565b7f4c6f616e3a20745f42206d757374206265203e203000000000000000000000005f82015250565b5f61508260158361403d565b915061508d8261504e565b602082019050919050565b5f6020820190508181035f8301526150af81615076565b9050919050565b7f4c6f616e3a20745f30206d757374206265203e203000000000000000000000005f82015250565b5f6150ea60158361403d565b91506150f5826150b6565b602082019050919050565b5f6020820190508181035f830152615117816150de565b9050919050565b7f4c6f616e3a20745f30206d757374203e20745f420000000000000000000000005f82015250565b5f61515260148361403d565b915061515d8261511e565b602082019050919050565b5f6020820190508181035f83015261517f81615146565b9050919050565b7f4c6f616e3a20745f31206d757374203e20745f4c2b745f4400000000000000005f82015250565b5f6151ba60188361403d565b91506151c582615186565b602082019050919050565b5f6020820190508181035f8301526151e7816151ae565b9050919050565b7f4c6f616e3a206e6f2045544820746f20776974686472617700000000000000005f82015250565b5f61522260188361403d565b915061522d826151ee565b602082019050919050565b5f6020820190508181035f83015261524f81615216565b9050919050565b5f81905092915050565b50565b5f61526e5f83615256565b915061527982615260565b5f82019050919050565b5f61528d82615263565b9150819050919050565b7f4c6f616e3a20455448207472616e73666572206661696c6564000000000000005f82015250565b5f6152cb60198361403d565b91506152d682615297565b602082019050919050565b5f6020820190508181035f8301526152f8816152bf565b905091905056fea2646970667358221220f27c660f01e2c78b55ff2fa95c5037436a4d60e6fff1fa1262b0acdb9bf7269864736f6c634300081e0033","linkReferences":{}},"methodIdentifiers":{"LENDER_BOND_PERCENTAGE()":"b021b9c6","MIN_LOAN_AMOUNT()":"96fa212f","ORIGIN_FEE_PERCENTAGE()":"3c75c92d","PROCESSING_FEE()":"545c4c6c","acceptLoanOffer(uint256,bytes32)":"23b03bc6","acceptLoanRepayment(uint256,bytes32)":"4de2ef5e","associateLenderPreimageHash(uint256,bytes32)":"abc6fb18","attemptRepayment(uint256,bytes32)":"0f5e0e35","borrowerToLoanId(address)":"899f75e7","deleteCompletedLoan(uint256)":"4df57bdc","emergencyWithdraw()":"db2e21bc","etherSwap()":"e1cbcbbc","extendLoanOffer(uint256,bytes32,bytes32)":"30f5cd2f","getLoan(uint256)":"504006ca","getLoanIdByBorrower(address)":"5de4de2f","getLoanParameters(uint256)":"6829015d","getTotalLoans()":"833be5d5","lenderBtcPubkey()":"f6287a44","loanDuration()":"f5521bf1","loanInterestRate()":"c222bcea","loanParameters(uint256)":"341c9f26","loans(uint256)":"e1ec3c68","markAsDefaulted(uint256)":"a8743022","owner()":"8da5cb5b","renounceOwnership()":"715018a6","requestLoan(uint256,string,string,bytes32,bytes32,uint32)":"4cae2bf9","setEtherSwapAddress(address)":"6e5f2149","timelockBtcCollateral()":"577b32f4","timelockBtcEscrow()":"cdb79afd","timelockLoanReq()":"45a011a5","timelockRepaymentAccept()":"aeca8d4d","transferOwnership(address)":"f2fde38b","updateLenderBtcPubkey(string)":"8d768fab","updateParameters(uint256,uint256,uint256,uint256,uint256)":"b7622dd4","withdrawLoanOffer(uint256)":"1203ad51","withdrawRepaymentAttempt(uint256)":"b65e21c5"},"id":40}